{
    "VERSION": "0.3.0",
    "__class__": "QTWallet",
    "last_tab_title": "History",
    "tutorial_index": null,
    "wallet": {
        "VERSION": "0.3.3",
        "__class__": "Wallet",
        "cbf_uuid": "a76e038b79f54d749f94413cb3d7d344",
        "descriptor_str": "wpkh([9a6a2580/84'/0'/0']xpub6DEzNop46vmxR49zYWFnMwmEfawSNmAMf6dLH5YKDY463twtvw1XD7ihwJRLPRGZJz799VPFzXHpZu6WdhT29WnaeuChS6aZHZPFmqczR5K/<0;1>/*)#77mrjnmt",
        "gap": 20,
        "id": "test_custom_wallet_bacon",
        "initialization_tips": [30, 5],
        "keystores": [{
            "VERSION": "0.0.2",
            "__class__": "KeyStore",
            "derivation_path": "/0/*",
            "description": "",
            "fingerprint": "9A6A2580",
            "key_origin": "m/84h/0h/0h",
            "label": "Signer 1",
            "mnemonic": null,
            "network": {
                "__enum__": true,
                "name": "Network",
                "value": "BITCOIN"
            },
            "xpub": "xpub6DEzNop46vmxR49zYWFnMwmEfawSNmAMf6dLH5YKDY463twtvw1XD7ihwJRLPRGZJz799VPFzXHpZu6WdhT29WnaeuChS6aZHZPFmqczR5K"
        }],
        "network": {
            "__enum__": true,
            "name": "Network",
            "value": "BITCOIN"
        },
        "refresh_wallet": false,
        "serialize_persistence": {
            "VERSION": "0.0.0",
            "__class__": "SerializePersistence",
            "chain_prune_depth": 10,
            "change_set": {
                "change_descriptor": "wpkh([9a6a2580/84'/0'/0']xpub6DEzNop46vmxR49zYWFnMwmEfawSNmAMf6dLH5YKDY463twtvw1XD7ihwJRLPRGZJz799VPFzXHpZu6WdhT29WnaeuChS6aZHZPFmqczR5K/1/*)#59p60w58",
                "descriptor": "wpkh([9a6a2580/84'/0'/0']xpub6DEzNop46vmxR49zYWFnMwmEfawSNmAMf6dLH5YKDY463twtvw1XD7ihwJRLPRGZJz799VPFzXHpZu6WdhT29WnaeuChS6aZHZPFmqczR5K/0/*)#93ymjmyl",
                "indexer": {
                    "last_revealed": {
                        "3e480e6ffb6cfd14efabbe329bf16a69f6e1b83d9cc19527bea196fc2640b4fa": 5,
                        "cf7e4b5ea120ceea5ebf716beb2384475e4b401d4b50322554cd64206e12d813": 30
                    }
                },
                "local_chain": {
                    "changes": [{
                        "hash": "204b1066e499032c6811c544a9a65940972f2a427b7700000000000000000000",
                        "height": 942613
                    }, {
                        "hash": "96965c8edc3aad2859c3fe0c87f457ed53a5c2e8ea6f00000000000000000000",
                        "height": 942614
                    }, {
                        "hash": "8979967d47c6fbea40ba033ee6307d44faffa3c42a0401000000000000000000",
                        "height": 942615
                    }, {
                        "hash": "1ad046422807a8be6cc4fa983c8982e85bc5fb1d558d00000000000000000000",
                        "height": 942616
                    }, {
                        "hash": "dc7c8036895cb65adc83bbacb36fc9db8ed59de3fb2100000000000000000000",
                        "height": 942617
                    }, {
                        "hash": "52eb26b9677ce5183855e5c01306966a605c3566be6701000000000000000000",
                        "height": 942618
                    }, {
                        "hash": "ae3b0fffd0d903609c249d4d01ad5b04aa3df6c7f10b01000000000000000000",
                        "height": 942619
                    }, {
                        "hash": "2bac3746f71bd1827a9710b3c2c34c78ffb74c0b50d001000000000000000000",
                        "height": 942620
                    }, {
                        "hash": "660b6a1b2798dc9a79a41200d3dc522f109925fd31b001000000000000000000",
                        "height": 942621
                    }, {
                        "hash": "758a0f7bcfa26ea92659d188e7bb2196e05ed7579df800000000000000000000",
                        "height": 942622
                    }, {
                        "hash": "a08a5956b40fb3a72340ba3f4a9c5e0e9c29ec6a641702000000000000000000",
                        "height": 942623
                    }, {
                        "hash": "6fe28c0ab6f1b372c1a6a246ae63f74f931e8365e15a089c68d6190000000000",
                        "height": 0
                    }, {
                        "hash": "0159cedeeada20181778981a15d5891aa0bc100dbf5303000000000000000000",
                        "height": 715101
                    }, {
                        "hash": "f88a9bf4f91143ec94f6377cf984b4a629073d817c0703000000000000000000",
                        "height": 722099
                    }, {
                        "hash": "1ff14cfce48634a19a180939fb9d9cc6f61d9ce0e9cd06000000000000000000",
                        "height": 724556
                    }, {
                        "hash": "2e0c9a3300fc66fe37f1350726da355eb1b18ce093e506000000000000000000",
                        "height": 729015
                    }, {
                        "hash": "5f707f6e693ef1d603db610b0b1abc3e059f54551ca900000000000000000000",
                        "height": 738328
                    }, {
                        "hash": "c26a11b09f5027cbf8d10de3ddafaa6d9c2fc03b74cc06000000000000000000",
                        "height": 755705
                    }, {
                        "hash": "8ba2ab08e4c5a07d2c134725e787f5fd6e33b611b52207000000000000000000",
                        "height": 755706
                    }, {
                        "hash": "2b0b1b95202716d7cc85eee0bf9b79ab8e0e89cc3ff906000000000000000000",
                        "height": 763666
                    }, {
                        "hash": "f84576f635f976d545a1bafb572c0a078858274e7dfd04000000000000000000",
                        "height": 772472
                    }, {
                        "hash": "12eee689e365399131cd463a696fdb53a3181fdd7a6304000000000000000000",
                        "height": 772475
                    }, {
                        "hash": "182fd1b3314c0266282127e73ec58ce7c9a50fc8691c04000000000000000000",
                        "height": 784150
                    }, {
                        "hash": "5a705c483994419f31e04bd078fc0443e55162bb8f6e02000000000000000000",
                        "height": 798590
                    }, {
                        "hash": "fe64b65cdb28f7cf0b8d0c3fc442f5170e0fab17752c05000000000000000000",
                        "height": 800671
                    }, {
                        "hash": "51d1ea4745a24f7e9d9a9096e14b4e755291d7496f2802000000000000000000",
                        "height": 809141
                    }, {
                        "hash": "23eed92a6a43d598a38c8af2b516a79e3b6d67f9c62004000000000000000000",
                        "height": 810015
                    }, {
                        "hash": "f926a310fa667db6a72a7161d11dc0eccd6399957c0802000000000000000000",
                        "height": 810541
                    }, {
                        "hash": "75ea3d54bae6e83632eaac413e9f8f39461a9dc30ce200000000000000000000",
                        "height": 810958
                    }, {
                        "hash": "75829198047fa1fa5da74699e85f3a0701c54427dbb401000000000000000000",
                        "height": 888082
                    }, {
                        "hash": "db8a47a54558f0d3b6bab94311af2318e705af97958e00000000000000000000",
                        "height": 905527
                    }, {
                        "hash": "fd4a40cd88f45d62f2c70e06b1870567eb11a6242d7f00000000000000000000",
                        "height": 905561
                    }, {
                        "hash": "d5b475ecb8e82961f0687e9d5d67f78b51d472ddea4700000000000000000000",
                        "height": 906278
                    }]
                },
                "network": "BITCOIN",
                "tx_graph": {
                    "anchors": [{
                        "confirmation_block_time": {
                            "block_id": {
                                "hash": "0159cedeeada20181778981a15d5891aa0bc100dbf5303000000000000000000",
                                "height": 715101
                            },
                            "confirmation_time": 1640096530
                        },
                        "txid": "c5f3681d9217493d3905f8efd019488dd6a52b0006547afbdf6548675415325d"
                    }, {
                        "confirmation_block_time": {
                            "block_id": {
                                "hash": "0159cedeeada20181778981a15d5891aa0bc100dbf5303000000000000000000",
                                "height": 715101
                            },
                            "confirmation_time": 1640096530
                        },
                        "txid": "cbc3f5b90158efeda916f21afd9851263c0d330112cad3ba338c377b62173be9"
                    }, {
                        "confirmation_block_time": {
                            "block_id": {
                                "hash": "f88a9bf4f91143ec94f6377cf984b4a629073d817c0703000000000000000000",
                                "height": 722099
                            },
                            "confirmation_time": 1644177996
                        },
                        "txid": "7af7257653a00b99c7755e93a18ad680aa898667f61f9cffcfc85690214842f8"
                    }, {
                        "confirmation_block_time": {
                            "block_id": {
                                "hash": "f88a9bf4f91143ec94f6377cf984b4a629073d817c0703000000000000000000",
                                "height": 722099
                            },
                            "confirmation_time": 1644177996
                        },
                        "txid": "801e176f9f95a3e0d4f27f788254a3c1abcc9a57b5b36c25e32baffa12d7a9cf"
                    }, {
                        "confirmation_block_time": {
                            "block_id": {
                                "hash": "1ff14cfce48634a19a180939fb9d9cc6f61d9ce0e9cd06000000000000000000",
                                "height": 724556
                            },
                            "confirmation_time": 1645591495
                        },
                        "txid": "f165cb8a9fd663f88d4bd8cccb79e959de2f40ad49c857f68968e295482b81a2"
                    }, {
                        "confirmation_block_time": {
                            "block_id": {
                                "hash": "2e0c9a3300fc66fe37f1350726da355eb1b18ce093e506000000000000000000",
                                "height": 729015
                            },
                            "confirmation_time": 1648251171
                        },
                        "txid": "38e0f51adbcdca328fe278909c67884e0d8e7cca7d6441d99efab14c5fb33308"
                    }, {
                        "confirmation_block_time": {
                            "block_id": {
                                "hash": "5f707f6e693ef1d603db610b0b1abc3e059f54551ca900000000000000000000",
                                "height": 738328
                            },
                            "confirmation_time": 1653772622
                        },
                        "txid": "22aaece991d6691db60c1efd38b16f8286e30eca34d20b24db47fcd9bcba90a4"
                    }, {
                        "confirmation_block_time": {
                            "block_id": {
                                "hash": "5f707f6e693ef1d603db610b0b1abc3e059f54551ca900000000000000000000",
                                "height": 738328
                            },
                            "confirmation_time": 1653772622
                        },
                        "txid": "fda8ec5e0cf40736a743e052ef8c95cc86b990b39cf162b764656b7449d09f6f"
                    }, {
                        "confirmation_block_time": {
                            "block_id": {
                                "hash": "c26a11b09f5027cbf8d10de3ddafaa6d9c2fc03b74cc06000000000000000000",
                                "height": 755705
                            },
                            "confirmation_time": 1664149042
                        },
                        "txid": "95c8fa1e6d69ba5815eff5ee77c693d91af9ff4fb73a01c84889657789589b5e"
                    }, {
                        "confirmation_block_time": {
                            "block_id": {
                                "hash": "c26a11b09f5027cbf8d10de3ddafaa6d9c2fc03b74cc06000000000000000000",
                                "height": 755705
                            },
                            "confirmation_time": 1664149042
                        },
                        "txid": "b59aaa6e4a7718dcecc94d5a878a4b1b3f1cdcd21aead54c82841e00854b7d55"
                    }, {
                        "confirmation_block_time": {
                            "block_id": {
                                "hash": "8ba2ab08e4c5a07d2c134725e787f5fd6e33b611b52207000000000000000000",
                                "height": 755706
                            },
                            "confirmation_time": 1664149788
                        },
                        "txid": "ec3e8eca1d71f4784d3b067f5e745d47ed149b93673d5a59cfc99e346640df3c"
                    }, {
                        "confirmation_block_time": {
                            "block_id": {
                                "hash": "8ba2ab08e4c5a07d2c134725e787f5fd6e33b611b52207000000000000000000",
                                "height": 755706
                            },
                            "confirmation_time": 1664149788
                        },
                        "txid": "f5e85b4153ac94cef95054d0ea058f75d382c08150cc4ad894b703e5ff965d38"
                    }, {
                        "confirmation_block_time": {
                            "block_id": {
                                "hash": "2b0b1b95202716d7cc85eee0bf9b79ab8e0e89cc3ff906000000000000000000",
                                "height": 763666
                            },
                            "confirmation_time": 1668750936
                        },
                        "txid": "4181148b34f4a149abb25fa5f601531042154102ea2d67851e4fa12da226a8b8"
                    }, {
                        "confirmation_block_time": {
                            "block_id": {
                                "hash": "2b0b1b95202716d7cc85eee0bf9b79ab8e0e89cc3ff906000000000000000000",
                                "height": 763666
                            },
                            "confirmation_time": 1668750936
                        },
                        "txid": "67b3035d9c43975f41f7d2450d1ea1212a35d09c8709a08d80386552fdcd45a1"
                    }, {
                        "confirmation_block_time": {
                            "block_id": {
                                "hash": "f84576f635f976d545a1bafb572c0a078858274e7dfd04000000000000000000",
                                "height": 772472
                            },
                            "confirmation_time": 1674016749
                        },
                        "txid": "62e34d86779708b252df6f6bd35788fd730e9198b228bb3153f46e08e42e7792"
                    }, {
                        "confirmation_block_time": {
                            "block_id": {
                                "hash": "12eee689e365399131cd463a696fdb53a3181fdd7a6304000000000000000000",
                                "height": 772475
                            },
                            "confirmation_time": 1674019512
                        },
                        "txid": "0907f1469877972bd42748a3462f8844c8d699345773a4bc4b709894e660b065"
                    }, {
                        "confirmation_block_time": {
                            "block_id": {
                                "hash": "182fd1b3314c0266282127e73ec58ce7c9a50fc8691c04000000000000000000",
                                "height": 784150
                            },
                            "confirmation_time": 1680759292
                        },
                        "txid": "57bef04f7c666b8c242e83494cfc5efe14c656ef1035662835f4214dc47f24b5"
                    }, {
                        "confirmation_block_time": {
                            "block_id": {
                                "hash": "182fd1b3314c0266282127e73ec58ce7c9a50fc8691c04000000000000000000",
                                "height": 784150
                            },
                            "confirmation_time": 1680759292
                        },
                        "txid": "64504e2cb76abcaead57e609699326a3eaf35e71e26ec8f32fd553e7584af47a"
                    }, {
                        "confirmation_block_time": {
                            "block_id": {
                                "hash": "5a705c483994419f31e04bd078fc0443e55162bb8f6e02000000000000000000",
                                "height": 798590
                            },
                            "confirmation_time": 1689296999
                        },
                        "txid": "782d6f697f1bb0a399fdfecdf1da2bc1137b7c145187013fd5f8064d33261845"
                    }, {
                        "confirmation_block_time": {
                            "block_id": {
                                "hash": "5a705c483994419f31e04bd078fc0443e55162bb8f6e02000000000000000000",
                                "height": 798590
                            },
                            "confirmation_time": 1689296999
                        },
                        "txid": "8f06b04e8b406aa997d4d6f5b31bc1090c1f4e86178ba5b05adf49ce3b7da574"
                    }, {
                        "confirmation_block_time": {
                            "block_id": {
                                "hash": "fe64b65cdb28f7cf0b8d0c3fc442f5170e0fab17752c05000000000000000000",
                                "height": 800671
                            },
                            "confirmation_time": 1690575400
                        },
                        "txid": "65efdaf49359fcb3dfb17cbf22f5730de643d2c82bb9e25e468fd951d930f697"
                    }, {
                        "confirmation_block_time": {
                            "block_id": {
                                "hash": "fe64b65cdb28f7cf0b8d0c3fc442f5170e0fab17752c05000000000000000000",
                                "height": 800671
                            },
                            "confirmation_time": 1690575400
                        },
                        "txid": "80aae3af4125b21eb61adf192c5c8a6fa8ca28c3f91fc21bb7550b0903c72c9c"
                    }, {
                        "confirmation_block_time": {
                            "block_id": {
                                "hash": "51d1ea4745a24f7e9d9a9096e14b4e755291d7496f2802000000000000000000",
                                "height": 809141
                            },
                            "confirmation_time": 1695556676
                        },
                        "txid": "40418ba1ea031858e96561d91972bd8eddc71791fe891f4c0e2096a51473d94c"
                    }, {
                        "confirmation_block_time": {
                            "block_id": {
                                "hash": "23eed92a6a43d598a38c8af2b516a79e3b6d67f9c62004000000000000000000",
                                "height": 810015
                            },
                            "confirmation_time": 1696076470
                        },
                        "txid": "0ed401bb489d9f2ca011d2c20f5e821eaeaadc25118a117e2ec136da5bc1b8da"
                    }, {
                        "confirmation_block_time": {
                            "block_id": {
                                "hash": "23eed92a6a43d598a38c8af2b516a79e3b6d67f9c62004000000000000000000",
                                "height": 810015
                            },
                            "confirmation_time": 1696076470
                        },
                        "txid": "7125c395d10bdaee1088c1f764a20f54f9a1dbc9a4173960009b9975448bdcc9"
                    }, {
                        "confirmation_block_time": {
                            "block_id": {
                                "hash": "f926a310fa667db6a72a7161d11dc0eccd6399957c0802000000000000000000",
                                "height": 810541
                            },
                            "confirmation_time": 1696378127
                        },
                        "txid": "f653132e2b7d36682d1e506c2eab37b34a1e859770fa4b926c1bb2c6fe3baa94"
                    }, {
                        "confirmation_block_time": {
                            "block_id": {
                                "hash": "75ea3d54bae6e83632eaac413e9f8f39461a9dc30ce200000000000000000000",
                                "height": 810958
                            },
                            "confirmation_time": 1696628613
                        },
                        "txid": "026477d4cc8818dc6fa726e20105fdd3300eb4dc8c8fef06d702fd5332f6ed9b"
                    }, {
                        "confirmation_block_time": {
                            "block_id": {
                                "hash": "75ea3d54bae6e83632eaac413e9f8f39461a9dc30ce200000000000000000000",
                                "height": 810958
                            },
                            "confirmation_time": 1696628613
                        },
                        "txid": "2552893e685cf83c0eb5dbc2b96293262dc2a0db0cabf37923794a8d079c22dc"
                    }, {
                        "confirmation_block_time": {
                            "block_id": {
                                "hash": "75829198047fa1fa5da74699e85f3a0701c54427dbb401000000000000000000",
                                "height": 888082
                            },
                            "confirmation_time": 1742147987
                        },
                        "txid": "70fb951aa0b79c5c4d793cfe60548e8270c2f5db2ff1b9503655450c35556623"
                    }, {
                        "confirmation_block_time": {
                            "block_id": {
                                "hash": "75829198047fa1fa5da74699e85f3a0701c54427dbb401000000000000000000",
                                "height": 888082
                            },
                            "confirmation_time": 1742147987
                        },
                        "txid": "94c78bf3942f96a7fe39c476ecd0096cbdd23cbc6cf39af198e94e7169702d31"
                    }, {
                        "confirmation_block_time": {
                            "block_id": {
                                "hash": "db8a47a54558f0d3b6bab94311af2318e705af97958e00000000000000000000",
                                "height": 905527
                            },
                            "confirmation_time": 1752507729
                        },
                        "txid": "a95bd213d9a1c487c9b02e9ff672ce9c181859a510651ca4b970590e3a688aa5"
                    }, {
                        "confirmation_block_time": {
                            "block_id": {
                                "hash": "db8a47a54558f0d3b6bab94311af2318e705af97958e00000000000000000000",
                                "height": 905527
                            },
                            "confirmation_time": 1752507729
                        },
                        "txid": "d92075f8e1d76a19d5f62c963cb30c28375c2ed3414221289e1d692c38fc4787"
                    }, {
                        "confirmation_block_time": {
                            "block_id": {
                                "hash": "fd4a40cd88f45d62f2c70e06b1870567eb11a6242d7f00000000000000000000",
                                "height": 905561
                            },
                            "confirmation_time": 1752527466
                        },
                        "txid": "1619a800654ba92f1df44e5582bedd873d7f25e18ca7d69ba02686e37753bc2f"
                    }, {
                        "confirmation_block_time": {
                            "block_id": {
                                "hash": "fd4a40cd88f45d62f2c70e06b1870567eb11a6242d7f00000000000000000000",
                                "height": 905561
                            },
                            "confirmation_time": 1752527466
                        },
                        "txid": "f32e80a683fdaa590ad4714612afc396c6c7cd55efaaa3ff420a4e3c75f2134b"
                    }, {
                        "confirmation_block_time": {
                            "block_id": {
                                "hash": "d5b475ecb8e82961f0687e9d5d67f78b51d472ddea4700000000000000000000",
                                "height": 906278
                            },
                            "confirmation_time": 1752958279
                        },
                        "txid": "3337c845c10f0e41b1049da0186cd97d8fbc6c074a258cf5c5ec7886ee811352"
                    }, {
                        "confirmation_block_time": {
                            "block_id": {
                                "hash": "d5b475ecb8e82961f0687e9d5d67f78b51d472ddea4700000000000000000000",
                                "height": 906278
                            },
                            "confirmation_time": 1752958279
                        },
                        "txid": "5b086b5c6092dd93b9553488cd480cd67dca714540cd7ab9bedd385273e8ca3f"
                    }],
                    "first_seen": {},
                    "last_evicted": {},
                    "last_seen": {},
                    "txouts": {},
                    "txs": ["01000000010e6bc7b695cc0f6f961455e6d1bddcace39842a6e6b442ab043c6af84b108cae0100000000ffffffff02a99f57050000000016001421be6b5e5f7cc65b319d9a662e31ebab1a418b3a802e00000000000016001424d1675a1f75268ab3dbaaa075965a17dbbb918300000000", "01000000011619a800654ba92f1df44e5582bedd873d7f25e18ca7d69ba02686e37753bc2f0000000000ffffffff012b000000000000000f6a0d234672656553616d6f7572616900000000", "010000000122aaece991d6691db60c1efd38b16f8286e30eca34d20b24db47fcd9bcba90a40100000000ffffffff015002000000000000160014ac300331705cd20c94ad62b5ec54310a2141881a00000000", "01000000014a9847f03cdd4ef35c3e59992a88bec9abb427084bdf0db2c83376c882cba7df0b00000000ffffffff112413000000000000160014c068787f33e7dfa8100555ce3a787f0c02fd8ead64850000000000002200201078047b8d36517d6de0bbdf5a988b070bb2c67adfbec7f6cb1c7878a90e8a691aa6030000000000220020fd0805c5caa4f9007c992ebce4f1da9c7f53943a4960c03cd22ef94bffce4f0d51480000000000001600148db11a62301a61c45410282dc2a0325fdd3cadb8c34800000000000017a91463046359ee0803269b1583f7cc28dc7cf7bd99b3874c3e0500000000001600140cae7573bb093761cf875bb02c09ddae6a44ce6bd86600000000000016001424d1675a1f75268ab3dbaaa075965a17dbbb918300770100000000001600146301ba3ff3ec62ccda3115839647eb4f0c2bd15f4af90000000000001600148fc5e187c1f231bd52c43d1a4a911cd0d2d05e584ddf00000000000016001431eeea988c4cc91bca9b8069ec9bb8e49d3b38c6bf7401000000000017a91407d703465907f130371333ec1c088d86e6a17aa08716950000000000001976a91472fd99aab879affd33857a4fbd1e4c1c8ba2a94888ac8ef000000000000022002073ae08c012901a902b4dcbab5305b84d3973b167cfef75fe1db497056502388ac761000000000000160014317a278be0c26042de4730ac2f18338103694f032f360200000000001600147c37fe42c29c9dec616b25bc9ddb12d9c9b11f50ca4800000000000016001431eeea988c4cc91bca9b8069ec9bb8e49d3b38c666fe317201000000160014eed12e1ba4703f0a6afe1a3dd4a3b1de8680393600000000", "010000000157bef04f7c666b8c242e83494cfc5efe14c656ef1035662835f4214dc47f24b50000000000ffffffff015e01000000000000160014ac300331705cd20c94ad62b5ec54310a2141881a00000000", "010000000157c2fa20d7b78cb8d5aaa053f9e00060feb89a724f3431506ad3dff3856582530900000000ffffffff0ae803000000000000160014104a530761a2c5da4257a8d47cf092349f3542d687f72b0000000000160014d4858f13553bf7d15668e699fcaf54e8a549a31adf0d00000000000017a9144de023f9502429892179f25300af91524ff10300879f9103000000000017a9143905bc57120c9dad857f1015cd36a86cf12f0a1a879f0911000000000016001488451cbbc9babdd1c9289c897f42b59bf04d579ee8030000000000001976a91498b3f6c3eb73c46e9578a51d894b206d65dbf61788ac0f422d0000000000160014db171b69978b1fee51a1618427b6244787c5f2e2a65c10000000000017a9143c99f7b2db9de6a4df397f47bc66cd60838a707887c57f00000000000017a9143e6dc9149bf678d131294fec085a28bec15b21cc876a72d93e0b000000160014da25173faea569421615126eb82ac6dd4105b89200000000", "010000000184aeb297ee24b6eb81026e37458f837422f8091ba52095bbe6ef1cc93a58852c0000000000ffffffff0211ef01000000000022512029fafb33e5e728167bd36f4599e6816216bf62a43ba9145676405a1561c062d5c30200000000000016001480f62b3b2986144b850ed00057330edbf104081800000000", "0100000001c9b37453ac81c87ed728110753921f6b1792e8eeb94d8405f164d6691f965f140000000000fdffffff050000000000000000136a11546f6d2048206c6f766573206261636f6e3408000000000000160014f705fe23fe55f9b3dee90126af938a95ff52cb0234080000000000002251209eb331ed094250e32a02ca47093b155c10c7ba79de74fafdddcfb3651df339b734080000000000001976a914bb143045695fade0d57249a7abcd8baabd1a14bd88acb0080000000000001600148f67a1a951b0ad28797c60e4e14fcc197b5f43d000000000", "0100000001d92075f8e1d76a19d5f62c963cb30c28375c2ed3414221289e1d692c38fc47870000000000ffffffff011d000000000000000f6a0d234672656553616d6f7572616900000000", "020000000105341123600356bf90679b7339361976b7da5e97f4d94723fa0d22461e3ec3cf5a0000000000000080027105000000000000160014c02aee140c200c4e204d1adf5ce7507d7a3d8f47591b000000000000160014841ec205002c2b54a0c2d5a7cb5e6b1999cee44a00000000", "02000000010ed401bb489d9f2ca011d2c20f5e821eaeaadc25118a117e2ec136da5bc1b8da0100000000ffffffff01f4010000000000001600140388e59bfe6deea3b8c232b583b2919de13c3de100000000", "02000000012552893e685cf83c0eb5dbc2b96293262dc2a0db0cabf37923794a8d079c22dc0e00000000ffffffff019601000000000000160014e2f6c99e7f9431477ec7bdf1380784292928a5f300000000", "020000000140418ba1ea031858e96561d91972bd8eddc71791fe891f4c0e2096a51473d94c0000000000ffffffff019c010000000000001600142536c46ebc96607f7041434033207b7c16f581d700000000", "02000000015575a9ac8d4b21d205f872d5286cc0f3138a4797898235966b87a6f9096a5102000000000000000080028b01000000000000160014355e773cde13fa43dc65cba76218512824592c97cb9d000000000000160014040c593428df7c22697bc3126295650de6ee153200000000", "02000000015b086b5c6092dd93b9553488cd480cd67dca714540cd7ab9bedd385273e8ca3f0000000000ffffffff014a010000000000001600141ef97891158848014f1775bea82f1dc289a4f34500000000", "02000000015e067387acb16602887de77bd1e0b562f52f97359ff56be2fa437267d3dc413d0100000000fdffffff020e57000000000000160014770ea7b5e2c62e70b8a2828e4ff9baef3663c8f594e13400000000001600143c14820c5349e7df9453a40bc33b55548c811dff00000000", "02000000016164311cb58a0ea83773058c2b25c22bbd1af38f7a141aee41a6181961acc2940900000000fdffffff032a1c0000000000001600141bf50057c8ce420853f53714d0f00eacb2274d53d837010000000000160014d9dda0affbec593b37d9ebbbec433824fb56c51bf836bd0b00000000160014f95fcead5c985ef732cb9a232bb95ccc66ce3ade00000000", "020000000162e34d86779708b252df6f6bd35788fd730e9198b228bb3153f46e08e42e77920000000000ffffffff015203000000000000160014c0c23a9217aadd42434b8c62a407565c90b7e83f00000000", "020000000165efdaf49359fcb3dfb17cbf22f5730de643d2c82bb9e25e468fd951d930f6970000000000ffffffff01624e000000000000160014fcc5e86336ad4c6826ca8b5b56a4e4cf22ad07d300000000", "020000000167b3035d9c43975f41f7d2450d1ea1212a35d09c8709a08d80386552fdcd45a10100000000ffffffff01bc240000000000001600145fc8e854994406f93ea5c7f3abccc5d319ae2a3100000000", "020000000170afb4586209f6136541a166858c90f19bbb3e32775d247439a6a11da8f0749b0100000000ffffffff570903000000000000225120d67e4935b58c715f08f5148daf69532b624305348fa19f406a8565e6029ef63ae9020000000000002251202a56c4412beca184c3c7d19bb1c77840c414608616cf02708915fb14f4c9c7e3c90200000000000017a91405a2c9fe5b165323424c819ea22fd38b33ab54b087c9020000000000002251203d0a79af0c935ea45ef873020bd658cdda9302e43948ac0c1ea0286111b1f34c090300000000000022512037e5c0632d0774f894eb028e47d06f999f5d11c179d5be21c798885856f9934ac902000000000000225120b344d8c7764f46dcc5ac60bfdc175ee1b8afa978b65c630348bb799ea8c1c909e902000000000000225120e8d106b08f964760e8b883c97c28ff85d5a3df6bd63d83d88e41afb22ee1e9e6c90200000000000022512099e36900520326c770b3917bf77ffd9eb61d96a9a0d2c42dd16b5ece4bfa8050c902000000000000225120e3e36aaff52ea19a4c87f9daafec9b375aa60a4c534236f5eabfc7f7365c061ae902000000000000225120fb24d64f8e25502f6aff581de44de271e5c83c3f4253f0b11f6b60e6fe4ae741e40200000000000016001456b6c423618c9fe9d4938a8bf894af558103f677c9020000000000002251202698023591c36608c28cc6a61a96c57e7a59e9a2a70a3d2681f922d10acab7b7e9020000000000002251203b0a582ad6e6842341541aa1acb8ba3c043282a1c2ac1b789176d7c3a2474b78c602000000000000225120d00f51ee0433bc14a639281bfe216683b91960c973db4343582e724a4898bbb72c030000000000001600147941dad331c73222dd6475a6f2820034048c710aec0200000000000022512043082001e992377691637de86db81b530bc9df39cc9a58fcd1b2ee5d4953004e090300000000000017a914c0f096cf9e9b9512d90a97b33dcd6fad1226d04387c9020000000000002251204bd88c3434cffdf5b0841f15727ba12e12e31dba3078ebb30bd68f20babe5cb4e90200000000000017a914fa7c980d04b1d3a3a995d391e67f1c738836bf9a872903000000000000225120616e7dd915805783d071b3f8c5ebdd014350cbc8f59f1207b41a8a2cd819b6bfc902000000000000225120fb28d1f73fbb6e56f586c3a96fee0686e10f15ec28f1d6fee8f96880914f8c6dc9020000000000001976a914d82204a0812037fc0d5424cc04c04a12297c842d88ac0c030000000000002251207c46aa4a0a984f9a34810d38a66cfc356cf09f1f55800d1adcb8ffc98fc200840c030000000000002251204188c16d65d149270c51b8ff64ec742fcd9c26b110e88fe8691bcf77c2f2eee0e9020000000000002251207a065ffb1fa7ced435e010f38f3cab01cb56ff3cf921b66e7418dc9df3b667c60903000000000000225120e0a06fc315a6d98b4e350c53ada5cb68c39c7eeca18da610a5d9b9b2c8e01cf3c9020000000000002251209bf9522187bdc32011af5ca723c0ec2fb843be7471b04ba783db550068f3b723e90200000000000022002045811cbb0e55b186fec90aebef550d72a085ade55572ee325ae5b6432ec83c380903000000000000160014ffb1fa9e82a05fa077dae09a819779ea9cda2fd4c902000000000000225120655cebb0570048cddb1338469d0109fdb5e28a5cc1181b9f9b7e8816cc0990aa0903000000000000225120bda54f6a544c74228ece050ca257c5f38999093324e7b68ec275833f96e29f25e902000000000000225120dfdbb980bf25bf51d2abc4ae789d1766d07e6489367294a1bd18ef003160e48f290300000000000022512074c6a6a70247ffe52b1bf3867b8d9ad35ea0572f78138654ea84e7fcd7ab3423c90200000000000022512066bd6ed7550f73dafacadaf290b9bc396dd37765c40ae2d5b87ad752dddc8209c90200000000000022512068230c72a257f677b83f77c23d76fcbac95e97d6d31cf1561a87931108c53a1dc90200000000000017a914503ea57c7ffb7fccd3a8e5826d11ee7d6a74687187e90200000000000022512032651dc574a0459db28f8351caef3e5797e6471983592430a1d31cae3997f27be9020000000000001600142a94c953ec91f30b10ce3be6f9d72a8decaa94a8e902000000000000225120817169da9439e5bf04529d6c5bc7c3d3f147b59682c123300f67ce57974d49ece902000000000000225120b9a2a4d75102e1affd74d398b0cf6a6ec0a742ac9ec4e002ceb7f30be6c1ef91e902000000000000225120c8d3ebb267e40b390b2f13deeb6a8445b5dcddeb9439a2a8c012a8ba71bec5e0e9020000000000002251200edf8210687a8cfdec45914e2d633637e8738016d1b46ccaed89fd3ae691b8080b030000000000002251205f31319b34b088899c9ccabbbda3de2bd0871470403625bc4d8190bb0f6383580b03000000000000225120ad2fec34b9b274e58788652fdcbab02ba8b997a895fae09a58851ad47f98014c0703000000000000225120fd590ad8ff2b23fbcfdd8262b190f1f2119b08761d81ad993027d4e0655e462ce902000000000000225120f82d640d78a4b7677853e0e030defb9bfad50e308aa7c882e467e434d5fc74abe9020000000000002251207cfb21dd6351783914670ae7f978689090bbc99539bc5a51415e8997755629aae90200000000000017a914125c8f972b50e85caa949fdaf77d543ce956a4ff87e9020000000000002251203761cd98c864313d77c92d88cfa75c726cdbb543886cb3e7ae44a3a38522806b2903000000000000220020aa4e7121005beeb6be38be8e7ece090cbd0528cf110d4cab283d5a9ad5a741cce9020000000000002251200ec638a467dd41b09bf258e4e2a59963b439f21edd103d100df17b8db588020009030000000000002251205e94baff00b576cb49e00cbb291bb9aee8ced8dec4df0f904d08b0381b313103e902000000000000225120be2d89fddd4ca03291fd3e8234989f7be42fe235d1a7c1591618d2873ccd2334e902000000000000225120ca74f19869d8dc7c8a7a4395563a9ff2937175d08f3cf32b88ffa23fd32969e5e9020000000000002251201989e84d60f1e0432dc673bcd48c0b913a84ae690411ab22fa0a8a158a23cd2231030000000000002251203717cb0b652220121c7216df80e3456fdf356224667e9efdaaef10751f4d8a62e902000000000000225120f184e338c812f58a0723b389686c108bc8fc99839295ecb00f56aedbd2100077a9020000000000002251206152577c88e54083e7f86d74c26b28d600b65455863d08364f431b49c44bdbfba602000000000000225120510194d1d771c43b369ef845d0cc0ca3de3fd86ca903b992e45bd70098ad91390903000000000000225120c7ae5917bd5be0de4cb28f96f5991b0c36694ad2e17efc8005b8f1cd3749c742090300000000000016001446d732a5a5c82ff6b306907630f455c9b3bb2932c902000000000000225120af3f43ae1cc5b33e6c2b5d88109244a4c628f11bf08eba3c77bf0e89148c7019e90200000000000022512034d81a4aef75b55ea7b5738e9d5d7692937cc7d75b7d3c9de14d7a8680f81392e90200000000000022512011662dc339bbf53022dae41e263465596766d202a8444ca1d3e2bdc4ff5c8564e90200000000000017a9149027f9d0b6f4c593247c3a3bffe93758f69f5c9d87e902000000000000225120a16a82aae848dd218374933260c40522acd7cfc1dc55b0f7c97dced51de804a0c902000000000000225120a9c92e22a7f4bf56396182d5bc09e801451e753e25b1408fc2198171a99ee312c9020000000000002251209a79105afc5a62c24658d2e5a8d0f525c4b3bd8d567a5e926ad69e759bf41bc381020000000000002251208463abff91c5122dfa92cf16c4155918c6e9bfa3a2e9c4ef0decabc5b03ee803ec02000000000000225120f3db157a4196fc1ff62b8343e4bda53ba96f65061e47b71a1267bf3300bd851a4c030000000000002251209c22971c55419d7332b3aab452e35dfa89d38fd714a79d1b7ccf812a53990dade902000000000000225120acfce4cb3be96e8492a8048189673dd6c200c4d791ee2d78894dcbb9518574fce902000000000000225120bf4c9034b71f34485244254b17b801e19a3eb9f1cc87fa2a5c2c6c5a3d6e59fce90200000000000022512064b962c5010809c091b4831f7b2e276a37b7750f820d38225d69b5b3ecada4ee29030000000000001976a91467de17cbc58324087553b3133e32c8643749884588ace902000000000000225120e3a6bc7d1f1abfd256bb9f59c625e801fa10ab1be02e5d5ad880de9cd349def3c602000000000000225120e5ba87ec6b1b46decd3d03cc73f53adc3b2f3f2d7a337c4479512379e84daba5e902000000000000225120884a93adf1f0a76e4ee5a5dad17c7ee3159616dccbf900e69b2f6599212c973fc902000000000000160014e587b419f60313b2319237c3b9be7b27f4082235e902000000000000225120e605f63484467ce41fba379e08f6b6f1d88adb6891b7b99cb1e9951d6ada6d11e9020000000000002251201fb733197c74ee63aa6e5d1d8d8be4d4954290a653e0f5dc9138f1dfe660d924c6020000000000002251202622cd202fb2cadddefd4d7ac54fb9fc98cf2f4b02f3d8e4ba4162e4ea253dd20903000000000000225120e94e65ea966754abddf71bcc77b141a813d99b097e7fe29b14443f6a9efbcf1ae9020000000000001600146ec573c17efa73e5da9ccdf954a4f3b5b098d0b909030000000000002251200bc6f49a9a3e78355f17d24cdf5afe085ff7f983ea650983a05c9a49dc36f2678602000000000000225120bc982b0c4e91ee891c520ff81b6ee1a7c96e8ffb5de5c6e87bcfa99a525cd0bbe9020000000000002251200197675180094093a6f29cef7236c503c7fad75273744b891317c91509a9254100000000", "020000000170fb951aa0b79c5c4d793cfe60548e8270c2f5db2ff1b9503655450c355566230600000000ffffffff012302000000000000160014c74bfce5b9a7b7a145f0fc5efd395da76fe92a0600000000", "02000000018f06b04e8b406aa997d4d6f5b31bc1090c1f4e86178ba5b05adf49ce3b7da5740100000000ffffffff018601000000000000160014e9907d1e2105fee921c1dabecf683fbb950dee2400000000", "020000000190bbbbcef479e5c7f56c947684f475c2267b0fdef86c45b68cf340096540f61ee700000000fdffffff0216040000000000001600141f57c20b7b6cfec647a8188ceeab3cc2ef0832b2b47f11000000000016001466530aeea33d87fa91071164a83e474556ea47ff00000000", "020000000195c8fa1e6d69ba5815eff5ee77c693d91af9ff4fb73a01c84889657789589b5e0000000000ffffffff017d0300000000000016001459c2519bbc588a94b6ffa6aefcf696e2a75f8afe00000000", "020000000195c8fa1e6d69ba5815eff5ee77c693d91af9ff4fb73a01c84889657789589b5e010000000000000080020e04000000000000160014b2dab0057746982386c2bc48577b0edcbc089bebb916000000000000160014a31aba6190c6f3b545d22c2a266c8c352bf05ea100000000", "0200000001b22daf183be5805d1739442c4bb1bef8c3f5334cc758f90efb6ca5caef541c890000000000000000800126020000000000001600147941dad331c73222dd6475a6f2820034048c710a00000000", "0200000001dc8d9522cd30e4bd11a6c740fcf48f935357a90155a9bd8cd85437090c4f6a352b00000000000000000250c30000000000001600143a4c969e48d40a4d688d09afb077aed51270651418451c0300000000160014ac8f3db3d1194362c8ee598b1e2383c03ce9bd4400000000", "0200000001ec3e8eca1d71f4784d3b067f5e745d47ed149b93673d5a59cfc99e346640df3c0000000000ffffffff011a02000000000000160014fc9f3ce7553d16d3975e12cb3a3595537e67064200000000", "0200000001ec4965f1bae756fa8a300d47a329dc8c02c95397f1d078ae121205ea55f68cbe0100000000000000800234080000000000001600144594ca7137971855d244da06dfb464b8aa13bee3cb2c020000000000160014b5c19582f593769e88bbb5a8068fbe964d37988a00000000", "02000000019acc65d2daecd5f7f4663ec8a4f031e975891034183c7aca1f366555b0b3d2e40000000000fdffffff018d4502000000000016001424d1675a1f75268ab3dbaaa075965a17dbbb91834ee90a00", "0200000001c5f3681d9217493d3905f8efd019488dd6a52b0006547afbdf6548675415325d0000000000fdffffff015c430200000000001600144bce0fd21a3dae159ba5364305b697269f470e4c5ce90a00", "0200000001801e176f9f95a3e0d4f27f788254a3c1abcc9a57b5b36c25e32baffa12d7a9cf0000000000fdffffff01dfc20000000000001976a9149963c8b13ab547d7269fc67329dc04ea1e8b221b88acb1040b00", "0200000002f165cb8a9fd663f88d4bd8cccb79e959de2f40ad49c857f68968e295482b81a20000000000fdffffff4259118fe92f729c5866f6e404f0ff532b42c77dac5f3daf780bcee366f391ae0c00000000fdffffff01186e4e00000000001976a9149963c8b13ab547d7269fc67329dc04ea1e8b221b88acb61f0b00", "02000000017fb22884820d4fde670110648f1c943ca41f9137ae550e66768d602e9308d74c0100000000fdffffff02a406000000000000160014ce4107f3a8dd2a0c9f07153f3a8728bb114a5cebe8030000000000001600147941dad331c73222dd6475a6f2820034048c710a46490c00", "02000000010f5278b2f09a0ebe65e20d574ae184d060d3f6d5cbca3ed00da2103038b6c55e0000000000fdffffff02391b0000000000001600140fdde11ec98ff51cf5e4d5c9dfdc16a5133964d4e5210e000000000016001477d79e66ed87a43840264e3f725e25705724770b36d10d00"]
                }
            },
            "restrict_chain_changes": true
        }
    },
    "warned_change_without_input_txids": []
}